3182 600 111          00324100004700200000000100000000100100401                   1   00
3182 600 111          0032410000470020000000010000000010020038F13                 1   00
3182 654 195          00324100004700200000000100000000100100401                   1   00
3182 654 195          0032410000470020000000010000000010020038F13                 1   00
3182 654 213          00324100004700200000000100000000100100401                   1   00
3182 654 213          0032410000470020000000010000000010020038F17                 1   00
3182 654 213          0032410000470020000000010000000020010122Opel Easytronic     1   00
3182 654 213          0032410000470020000000010000000020020038F13                 1   00
3182 998 803          00324100004700200000000100000000100100401                   1   00
3182 998 803          0032410000470020000000010000000010020038F17                 1   00
993 751               0032410001880020000000010000000010010100VA                  1   00
993 751               00324100018800200000000100000000100205672                   1   00
993 751               00324100018800200000000100000000100300401                   1   00
993 751               003241000188002000000001000000001004004022                  1   00
993 752               0032410001880020000000010000000010010100VA                  1   00
993 752               00324100018800200000000100000000100205672                   1   00
993 752               003241000188002000000001000000001003004017                  1   00
993 752               003241000188002000000001000000001004056550                  1   00
993 752               0032410001880020000000010000000020010100VA                  1   00
993 752               00324100018800200000000100000000200205672                   1   00
